:020000040800F2
:10000000680400203D180008C5170008C71700083D
:10001000C9170008CB170008CD1700080000000022
:10002000000000000000000000000000CF170008E2
:10003000D117000800000000D3170008D5170008EA
:10004000691800086D180008711800087518000874
:10005000791800087D180008811800088518000824
:10006000891800088D1800089118000895180008D4
:10007000991800089D180008A1180008A518000884
:10008000A9180008AD180008D9170008B118000811
:10009000B5180008B9180008BD180008C1180008F4
:1000A000C5180008C9180008CD180008D1180008A4
:1000B000D5180008D9180008DD180008E118000854
:1000C000E5180008E9180008ED180008F118000804
:1000D000F5180008F9180008FD18000801190008B3
:1000E00005190008091900080D1900081119000860
:1000F00015190008191900081D1900082119000810
:1001000000000000000000000000000025190008A9
:10011000291900082D19000831190008351900089F
:10012000391900083D19000841190008451900084F
:10013000491900084D1900080000000000000000E7
:10014000511900085519000859190008000000004D
:10015000000000000000000000000000000000009F
:1001600000000000000000005D190008611900088F
:1001700065190008000000000000000000000000F9
:100180000000000069190008F8B500260446009632
:100190000CB90120F2BD04F140056868C10648D4DD
:1001A000686898BBAE602861E8602870204600F05F
:1001B000EBFC20688168C80028D400F088FA064665
:1001C0006868C10622D4300020D16868DFF8BC21FD
:1001D000DFF8BC3120F4885040F0020068602068ED
:1001E000816821F0405181602068816841F0805130
:1001F00081600A201168B1FBF3F34343009302E0EE
:100200000099491E009100980028F9D12068816862
:10021000CA0002D5806881000BD500F04DFAA868AD
:1002200040F00100A860686800F046FA01263046F8
:10023000F2BD6868C106F7D43000F5D12768B86808
:100240004107F1D46868DFF84C21DFF84C31DFF862
:100250004C1120F4807040F002006860B7F1A04FAC
:10026000DFF83C010ED0874208BF4FF0A04009D014
:100270009F42DFF8301108BF104603D097420CBFF1
:1002800018460020D7F808C00CF0030CBCF1010F91
:1002900002D13F68FF070ED438B1876807F0030723
:1002A000012F02D10068C70705D40F68606827F4E2
:1002B000403707430F60A06BE1680128E06914BF75
:1002C0004FF48057002747EA40370F43A1680F4398
:1002D000616A012911D130B9A06A401E400440F47E
:1002E0008030074309E0686820F0020040F02000F9
:1002F0006860A86840F00100A860E16AD4F800C016
:10030000012917D09C4518BF944510D1B1F5307F15
:1003100008BF4FF4E0710AD0B1F5807F08BF4FF4F9
:10032000307104D0B1F5E07F08BF4FF48071206BCD
:1003300001430F43DCF8080010F00C0F0CD1DCF87F
:100340000C10DFF84C030140CCF80C10616BA06975
:10035000490041EA80310F432168DFF83803CA6859
:1003600002401743CF60206901282068016B05D146
:10037000226A0909521E42EA011101E00909090134
:1003800001630020A86000F090F950E70C00002005
:1003900040420F00000500500004005008030050C8
:1003A00000010050080700502DE9F0470446DFF82F
:1003B00028532168DFF81C830868DFF82093DFF8F2
:1003C0002063DFF82073DFF820A3420702D54868D6
:1003D000420705D40A68100755D54868020752D568
:1003E000606CC20603D4606C40F400706064B1F1CC
:1003F000A04F16BF51453068386810F01F0017D065
:10040000B1F1A04F16BF51453068386800F01F00A9
:1004100005280DD0B1F1A04F16BF5145306838689E
:1004200000F01F0009281CBFB1F1A04F494501D1C0
:10043000C86804E051450CBF404628460068CA68B9
:1004400012F4406F19D1800417D40868020714D53C
:10045000886842070FD4486820F00C004860606C40
:1004600020F480706064606CC10406D4606C40F05D
:100470000100606401E000F00FF9204600F0BCFBD1
:1004800021680C20086021680868820602D5486847
:10049000820606D40A68500601D54868420640F133
:1004A0007F80606C40F400506064B1F1A04F16BFD3
:1004B00051453068386810F01F0017D0B1F1A04FD7
:1004C00016BF51453068386800F01F0005280DD070
:1004D000B1F1A04F16BF51453068386800F01F00D9
:1004E00009281CBFB1F1A04F494501D1C86804E0FB
:1004F00051450CBF404628460068CA6C12F0C00F38
:1005000007D0820146D4CA6812F4406F42D18004F9
:1005100040D4086842063DD5B1F1A04F16BF514501
:100520003068386810F01F0017D0B1F1A04F16BF27
:1005300051453068386800F01F0006280DD0B1F131
:10054000A04F16BF51453068386800F01F000728DB
:100550001CBFB1F1A04F494501D1C86803E0514526
:1005600008BF45462868800214D4886802070FD463
:10057000486820F060004860606C20F4805060643F
:10058000606CC10506D4606C40F00100606401E05D
:1005900000F082F8204600F0DFFA21686020086051
:1005A000206801680A060CD54068010609D5606C10
:1005B00040F480306064204600F01FFB21688020FA
:1005C000086020680168CA050DD54068C1050AD5D4
:1005D000606C40F400306064204600F00FFB21683E
:1005E0004FF480700860206801688A050DD5406866
:1005F00081050AD5606C40F480206064204600F0DC
:10060000FEFA21684FF40070086020680168CA068D
:1006100024D54168CA0621D5A16B012910D0B0F1BB
:10062000A04F1CBF50453E46326812F01F0F03D149
:10063000C068C10704D40EE0316811F4404F0AD0FD
:10064000606C40F480606064A06C40F00200A064C4
:10065000204600F0D5FA2168102008602068016863
:100660004A0512D541684A050FD5616C41F48041B5
:1006700061644FF48062A16C41F00801A1640260E2
:100680002046BDE8F04700F0BCBABDE8F0870000A6
:10069000FDBFFFFF07C0F0FF606C40F0100060641A
:1006A000A06C40F00100A0647047686820F0020070
:1006B00040F0010068607047686820F0020040F078
:1006C00010006860704704462068816870472046C3
:1006D00000F0FDB90C0000500C0400500004005064
:1006E000080300500807005000010050F8B50A4602
:1006F000002100F1400400912578012D01D1022054
:10070000F2BD0123237003689D686E0700F14281EA
:10071000576815681F26042F4FF0060C0BD80CFBEA
:1007200007F7D3F830C0BE402CEA060605FA07F7F3
:1007300037431F631DE00A2F08D27F1F17FB0CF7FA
:10074000D3F834C000F046F95D6312E00F2F08D2F1
:100750000A3F17FB0CF7D3F838C000F03BF99D6354
:1007600007E00F3F17FB0CF7D3F83CC000F032F95D
:10077000DD6307250668B36813F00C0F6DD11368AD
:1007800097680A2B0DD30A3B03EB430CD6F818E00D
:1007900005FA0CF32EEA030307FA0CF71F43B761BF
:1007A0000BE003EB430CD6F814E005FA0CF32EEA49
:1007B000030307FA0CF71F43776103685769DE6884
:1007C000D2F810E0F608760006F00606AEF1010E4B
:1007D00007FA06F6BEF1030FDFF85C731AD8DFE8FC
:1007E0000EF002080E14D3F860C000F0E9F81E669F
:1007F00033E0D3F864C000F0E3F85E662DE0D3F890
:1008000068C000F0DDF89E6627E0D3F86CC000F009
:10081000D7F821E01E6E00F0CDF803D11E6E26F051
:1008200000461E6603685E6E00F0C4F803D15E6E7B
:1008300026F000465E6603689E6E00F0BBF803D1AA
:100840009E6E26F000469E660368DE6E00F0B2F8EB
:1008500003D1DE6E26F00046DE6603689E6806F071
:100860000306012E02D11F68FE073CD4166801273B
:1008700007FA06F6D768012F06D0D3F8B05025EA5C
:100880000606C3F8B0601AE0D3F8B0703E43C3F870
:10089000B0601768936806680A2F08D3093F07EB12
:1008A0004707D6F818C000F07FF8B56107E07F1C55
:1008B00007EB4707D6F814C000F076F875610368B7
:1008C00038481268B3F1A04F16BF8342DFF86C526C
:1008D000DFF86C52102A02D12E68370203E0112A89
:1008E00003D12E68F70158D404E0122A55D12E689E
:1008F000770252D4B3F1A04F0FD0834208BF4FF01C
:10090000A0400AD0DFF83C02DFF8D460834208BF81
:10091000304602D0B34218BF00209E6806F003069E
:10092000012E02D11F68FE0734D438B1866806F064
:100930000306012E02D10068C6072BD4102A18D155
:10094000B3F1A04F29D12868DFF8FC3140F4000052
:1009500028600A221D68DFF8F401B5FBF0F050436F
:100960000090009800281EBF009A521E0092F8D1F5
:1009700013E0112A07D1B3F1A04F0ED1286840F03F
:100980008070286009E0122A07D12A6842F48002A8
:100990002A6002E000F026F80121002020700846BD
:1009A000F2BD000000010050BD402CEA0505BB402F
:1009B0001D437047176806F0F846B6EB876F70471F
:1009C00007EA0C07D2F800C047EA8C673E4346F0BE
:1009D00000467047BE402CEA0606BD4035437047CE
:1009E00000050050606840F0200060607047F8B576
:1009F0000368574E0022B3F1A04F07D1354600F1EE
:100A000040042778012F0FD10220F2BDB34208BF66
:100A10004FF0A045F3D04B4D464CAB420CBF2546A2
:100A2000A342ECD00120F2BD012727709F687F0709
:100A300046D4AF687F0743D4B3F1A04F16BFB3428B
:100A40003E4E3F4E0B68434F0BB3336823F4604C6C
:100A50004B6843EA0C0C436B4CEA43333360006849
:100A6000836803F00303012B02D10068C3072AD473
:100A7000A86800F00300012802D12B68D80722D40F
:100A800030680740086807438868074316E0316804
:100A900021F4604131600068816801F0030101299F
:100AA00002D10068C1070ED4A86800F00300012835
:100AB00002D12968C80706D430680740376002E0D1
:100AC000FFF790FF0122002020701046F2BD38B5DC
:100AD000FFF7F9FD01F0030101291BD10268D107DD
:100AE00018D5816801F00D01012912D1816841F00A
:100AF0000201816003202168086000F083F8054648
:100B000020688168C80705D500F07CF8401B0328E1
:100B1000F6D301E0002032BD00F001F832BD606C78
:100B200040F010006064A06C40F00100A06401205F
:100B3000704700000005005000F0FF8308030050DC
:100B400008070050000400500C00002040420F0035
:100B500000010050E0F0FFFF70470000244881B022
:100B6000016841F001010160026802F00102009297
:100B70000099416841F080514160406800F0805028
:100B80000090009801B0704710B586B0044601A8E7
:100B9000142100F03DF82168B1F1A04F25D115488E
:100BA000026842F0805202600322016801F0805125
:100BB00000910099016841F4003101600121006851
:100BC00000F4003000900098019100200390029200
:100BD00001A94FF0904000F01FF8002200211220E0
:100BE00000F014F9122000F02EF906B010BD00003C
:100BF0001810024014100240704770477047704749
:100C00007047704701484068704700BF00000020EF
:100C1000002200F043B900002DE9F84F4FF0000E1C
:100C2000654A664BDFF898814FF00F0982460F4600
:100C300033E0644DAA4514BF052504258D402543A6
:100C400043F82C50C143146801EA040C7C68E503A6
:100C500048BF40EA0C0CC2F800C0546801EA040C1A
:100C60007C68A50348BF40EA0C0CC2F804C0946835
:100C700001EA040C7C68E50248BF40EA0C0CC2F8AB
:100C800008C0D46801EA040C79688C0248BF40EAC5
:100C90000C0CC2F80CC00EF1010E396831FA0EF0DE
:100CA00000F08880012000FA0EFC1CEA0100F2D05E
:100CB0007C68022C18BF122C4FEA8E0110D14FEA2B
:100CC000DE040AEB840401F01C05266A09FA05FB20
:100CD00026EA0B06D7F810B00BFA05F53543256266
:100CE0004FEA4E040325DAF8006097F804B0A540F7
:100CF000ED430BF0030B2E400BFA04FB4BEA060608
:100D0000CAF800607E68012E18BF022E03D0112E93
:100D100018BF122E17D1DAF80860D7F80CB02E40A1
:100D20000BFA04FB4BEA0606CAF80860DAF804601E
:100D300026EA0C0C7E68C6F3001606FA0EF646EAA2
:100D40000C06CAF80460DAF80C603540BE6806FA92
:100D500004F42C43CAF80C407C68E4009BD5D8F816
:100D6000004044F00104C8F800404FEA9E0CD8F857
:100D7000005005F00105009501F00C01009C53F8AE
:100D80002C5009FA01F425EA0404BAF1904F08BF87
:100D900000250ED00C4DAA4508BF012509D00B4DEA
:100DA000AA4508BF022504D0094DAA457FF441AFEA
:100DB000032543E7BDE8F18F00040140080001402E
:100DC00018100240001000480004004800080048C5
:100DD000000C00480901020081B006D5294A00F044
:100DE0000F00104400F8041C01E0274B195401B017
:100DF0007047264A13684FF6FF0100020B4000F4CB
:100E0000E0601843224908431060704738B51F4B13
:100E10001C68C4F30223C3F10704052C28BF042473
:100E20001D1D072D34BF0023DB1E012505FA04F428
:100E3000641E2140994005FA03F35B1E1A401143DA
:100E4000BDE83440C6E7012200F01F01114BFFE767
:100E50008A40400943F82020704710B5401EB0F189
:100E6000807F01D3012010BD0B4C60600F214FF03B
:100E7000FF30FFF7AFFF0022A260072020600020B4
:100E800010BD000018ED00E000E400E00CED00E013
:100E90000000FA0500E100E010E000E000B500BF4E
:100EA000130096469446103928BFA0E80C50FAD893
:100EB0005FEA417C28BF0CC048BF40F8042BC9073B
:100EC00028BF20F8022B48BF00F8012B00BD00000E
:100ED0002DE9F843040018D02078DFF82C54C1071E
:100EE00040F1D680686800F00C00042807D06868DC
:100EF00000F00C0008280AD16868C10307D500F08B
:100F00005EF938D06068002827D101204BE1606885
:100F1000B0F5803F09D008B929680AE0B0F5A02FE4
:100F2000296806D141F480212960286840F4803086
:100F300005E021F480312960286820F480202860B1
:100F4000E96AA068090940EA0111E962606868B1CC
:100F5000FFF758FE064600F032F940F09980FFF79F
:100F600051FE801B6528F6D303201CE1FFF74AFEE3
:100F7000064600F024F900F08B80FFF743FE801B4B
:100F80006528F6D3F0E7FFF73DFEC01B022840F2CC
:100F9000AE80E9E7206970B101213160FFF732FED0
:100FA000074600F007F940F08D80FFF72BFEC01BCD
:100FB0000228F6D9D8E73060FFF724FE074600F094
:100FC000F9F800F08680FFF71DFEC01B0228F6D955
:100FD000CAE70860FFF716FE074600F072F900F056
:100FE0008A80FFF70FFEC01B0228F6D9BCE708B9BC
:100FF000286A09E00528286A06D140F00400286222
:10100000286A40F0010005E0400840002862286A94
:1010100020F00400286241F28938E06870B1FFF7DF
:10102000F1FD8146286A00F04DF940F09480FFF709
:10103000E9FDA0EB09004045F4D395E7FFF7E2FD99
:101040008146286A00F03EF900F08580FFF7DAFD5E
:10105000A0EB09004045F4D386E7FFF7D3FDC01BA2
:10106000022840F28B807FE7FFF7CCFD001B0228AF
:1010700040F2948078E700F0A7F8044600F095F875
:1010800000F09080FFF7BEFD001B0228F6D96BE749
:101090002078DFF8806281071BD5686810F00C0F9C
:1010A00009D0686800F00C0008287FF473AF686806
:1010B000C1033FF56FAF00F07DF81CBF2069012828
:1010C0007FF423AF2868616920F0F80040EAC1008E
:1010D0002860207801070ED5A069DFF83C120028AF
:1010E0003FF477AF01220A60FFF78CFD074600F05E
:1010F000E8F83FF448AF2078410731D5E869002788
:10110000C10009D4E86940F08050E8610127E8692E
:1011100000F0805000900098DFF80082D8F80010AE
:10112000C80513D4D8F8000040F48070C8F8000057
:10113000FFF768FD8146D8F80010C80506D4FFF710
:1011400061FDA0EB09006528F5D30DE7E0680128F3
:101150007FF44DAF54E71FB1E86920F08050E8619B
:10116000E069F8B1696801F00C0108293FF4CDAEDF
:1011700002287FF480AF00F027F8074600F015F84A
:101180007FF46BAF6968606A21F474110143206ACF
:1011900001436960012000F018F8044600F005F8EA
:1011A0003FF462AF0020BDE8F2832868C0F34060DE
:1011B000002870472868C0F340000028704728685E
:1011C000C0F340400028704700203066FFF71ABD8A
:1011D0002DE9F8430400884667D0514E00F06CF8C2
:1011E00002D200F064F860D12178474D880705D518
:1011F0006968A06821F0F001014369602078C107A7
:101200004BD56168012903D12868C0F3404004E050
:101210000229286803D1C0F3406018B945E000F006
:1012200051F842D06868800841EA8001696041F263
:101230008939FFF7E7FC07466868616800F00C0031
:10124000B0EB810F29D0FFF7DDFCC01B4845F3D37D
:10125000032020E02078410705D56968E06821F483
:10126000E061014369602078010706D5686821695B
:1012700020F4605040EAC100686000F027F8696817
:10128000284AC1F30311515C204AC8401060002075
:1012900000F05EF80020BDE8F283306800F007003F
:1012A0008045D7D200F003F8D4D00120F3E73168AD
:1012B000C90848EAC1013160306800F007004045C4
:1012C0007047686AC0F340000028704716490A68F2
:1012D00002F00C00082814D10FF25403C2F383402B
:1012E000D203185C896A09D50FF25403084A01F049
:1012F0000F01595CB2FBF1F1484370470B49484379
:101300007047034870470000001002400C000020A6
:1013100000127A0000004242800442420070004005
:1013200000200240D81600080410024000093D00C9
:1013300002030405060708090A0B0C0D0E0F101016
:101340000102030405060708090A0B0C0D0E0F1015
:1013500038B50D4D0D4A297804464FF47A70B0FB2C
:10136000F1F11068B0FBF1F0FFF777FD50B9102CE8
:1013700008D2002221464FF0FF30FFF747FDAC6056
:10138000002032BD012032BD000000200C000020F2
:101390002DE9FC410546DFF8A4612868C10354D556
:1013A000B0690024C10009D4B06940F08050B06138
:1013B0000124B06900F0805000900098DFF880713F
:1013C0003968C80517D4386840F480703860FFF772
:1013D00019FC80463968C8050DD4FFF713FCA0EB53
:1013E00008006528F6D30320A5E0FFF70BFCC01B1F
:1013F00040451AD3F7E7F06910F440701EBF6968E2
:1014000001F44071884215D0DFF83811F0690122EB
:101410000A6020F4407000220A60F061C00709D51C
:10142000FFF7F0FB074641F28938F069C0F340004E
:101430000028DAD0F169686821F440710143F16154
:101440001CB1B06920F08050B0612978C80705D57B
:10145000F16AA868890840EA8101F1622878810769
:1014600005D5F16AE86821F440310143F16228783A
:10147000410705D5F16A286921F440210143F16251
:101480002878810605D5F16AE86921F01001014349
:10149000F1622868810305D53168A86B21F48001C9
:1014A000014331602878410605D5F16A286A21F0A8
:1014B00020010143F1622878010705D5F16A6869C6
:1014C00021F440110143F1622878C10605D5F16A83
:1014D000A86921F440010143F1622868810505D51E
:1014E0003168E86A21F4000101433160287801067F
:1014F00005D5B16A686A21F4F8710143B1622868C0
:10150000C10505D5B16AA86A21F478510143B162D9
:101510002868C10405D5F16A286B21F48071014364
:10152000F1622868810405D5F16A686B21F40071C5
:101530000143F1620020BDE8F68100000410024082
:10154000007000404004424218B589B000F07CF8B9
:1015500000F048F82148016841F40031016006A913
:10156000006800F40030009000220098002300245E
:1015700081E81C0068461821FFF74AFB184C4FF021
:10158000A040206000206060A0602061E061606297
:1015900020630120E0620020E06001202062002042
:1015A0006063042060610020A061A0632046FEF714
:1015B000EBFD0020069006A92046FFF718FA01204F
:1015C0000090019007210020039002910490059063
:1015D00069462046FFF78AF8FEE700001410024033
:1015E0001000002080B59EB005A82821FFF710FB51
:1015F00068461421FFF70CFB0FA83C21FFF708FBFE
:10160000022005900121099110200A9002210C91DD
:1016100000200D904FF400210E9105A8FFF758FC13
:101620000F200090002101910291039104916846DE
:10163000FFF7CEFD80200F904FF4807118910FA816
:10164000FFF7A6FE1FB000BD80B50748016841F056
:10165000100101600320FFF7CCFB0020FFF778FEAC
:10166000FFF77CFA002002BD002002401448016808
:1016700041F4700101601349086840F001000860FE
:101680004A68114802404A600B68104803400B60EA
:10169000086820F4802008604A6822F4FE024A604C
:1016A000C86A00090001C8620A6B094802400A635F
:1016B000002088604FF00060064908607047000015
:1016C00088ED00E0001002400CC07FF8FFFFF6FE3E
:1016D000CCFC00FF08ED00E000000000000000006E
:1016E000010203040607080919E050F8042BD30788
:1016F00044BFA9F101039A18091F0023042942F8E5
:10170000043BF9D25FEA817C134604D54FF0000C0C
:10171000A2F800C09B1CC90744BF0021197050F8F3
:10172000041B0029E1D1704710B450F8041B79B1B3
:101730000268436802440830DC0744BFA9F1010491
:10174000E31852F8044B43F8044B091FF9D1ECE7B6
:1017500010BC704710B5074979441831064C7C44D9
:10176000163404E00A68081D114488470146A14266
:10177000F8D110BD2C0000004C0000004EF688513E
:10178000CEF20001086840F470000860BFF34F8F8C
:10179000BFF36F8F4FF00070E1EE100A704700004A
:1017A00049FFFFFF5400000010000020000000006F
:1017B00079FFFFFF100000009400000000000020EF
:1017C000000000007047FEE7FEE7FEE7FEE7704717
:1017D0007047704700F006B80148FEF7E5BD00000D
:1017E0001000002002484168027889184160704763
:1017F0000000002000F00DF8002801D0FFF7AAFF3C
:10180000AFF300800020AFF30080FFF79DFE00F0F3
:1018100002F80120704700F001B800000746384682
:1018200000F002F8FBE7000080B5AFF30080024A49
:1018300011001820ABBEFBE72600020001488047DC
:10184000014800476D1600085D18000801000000FF
:10185000000000001000000000127A00AFF30080CA
:10186000FFF78CFFFFF7C6FFFFF7FEBFFFF7FEBFD6
:10187000FFF7FEBFFFF7FEBFFFF7FEBFFFF7FEBF9C
:10188000FFF7FEBFFFF7FEBFFFF7FEBFFFF7FEBF8C
:10189000FFF7FEBFFFF7FEBFFFF7FEBFFFF7FEBF7C
:1018A000FFF7FEBFFFF7FEBFFFF7FEBFFFF7FEBF6C
:1018B000FFF7FEBFFFF7FEBFFFF7FEBFFFF7FEBF5C
:1018C000FFF7FEBFFFF7FEBFFFF7FEBFFFF7FEBF4C
:1018D000FFF7FEBFFFF7FEBFFFF7FEBFFFF7FEBF3C
:1018E000FFF7FEBFFFF7FEBFFFF7FEBFFFF7FEBF2C
:1018F000FFF7FEBFFFF7FEBFFFF7FEBFFFF7FEBF1C
:10190000FFF7FEBFFFF7FEBFFFF7FEBFFFF7FEBF0B
:10191000FFF7FEBFFFF7FEBFFFF7FEBFFFF7FEBFFB
:10192000FFF7FEBFFFF7FEBFFFF7FEBFFFF7FEBFEB
:10193000FFF7FEBFFFF7FEBFFFF7FEBFFFF7FEBFDB
:10194000FFF7FEBFFFF7FEBFFFF7FEBFFFF7FEBFCB
:10195000FFF7FEBFFFF7FEBFFFF7FEBFFFF7FEBFBB
:0C196000FFF7FEBFFFF7FEBFFFF7FEBF62
:040000050800185D7A
:00000001FF
